:100000000C9461000C947E000C947E000C947E0095
:100010000C947E000C947E000C947E000C947E0068
:100020000C947E000C947E000C947E000C947E0058
:100030000C947E000C947E000C947E000C947E0048
:100040000C94C5000C947E000C947E000C947E00F1
:100050000C947E000C947E000C947E000C947E0028
:100060000C947E000C947E00000000080002010049
:100070000003040700000000000000000102040863
:100080001020408001020408102001020408102002
:10009000040404040404040402020202020203032E
:1000A00003030303000000002300260029000000D2
:1000B0000000250028002B0000000000240027007D
:1000C0002A0011241FBECFEFD8E0DEBFCDBF11E064
:1000D000A0E0B1E0E0EFF4E002C005900D92A230A4
:1000E000B107D9F721E0A2E0B1E001C01D92AB3029
:1000F000B207E1F70E9464020C9473020C940000B2
:1001000060E082E00E94CF0161E083E00E94CF01C5
:1001100061E084E00E94CF0161E085E00C94CF01B2
:1001200082E00E9439029093010180930001892BA3
:1001300061F461E083E00E940B0260E084E00E94D1
:100140000B0260E085E00C940B0260E083E00E940B
:100150000B0260E084E00E940B0261E085E00E94F7
:100160000B026AEF70E080E090E00E94320161E0F3
:1001700084E00E940B0260E085E00E940B026AEFBF
:1001800070E080E090E00C9432011F921FB61F9245
:1001900011242F933F938F939F93AF93BF9380919D
:1001A000030190910401A0910501B09106013091E5
:1001B000020123E0230F2D3750F50196A11DB11D3B
:1001C000209302018093030190930401A093050101
:1001D000B09306018091070190910801A091090157
:1001E000B0910A010196A11DB11D80930701909362
:1001F0000801A0930901B0930A01BF91AF919F91AB
:100200008F913F912F911F901FBE1F90189526E848
:10021000230F0296A11DB11DD3CF3FB7F894809153
:10022000070190910801A0910901B0910A0126B53A
:10023000A89B05C02F3F19F00196A11DB11D3FBF1E
:10024000BA2FA92F982F8827BC01CD01620F711DED
:10025000811D911D42E0660F771F881F991F4A95E7
:10026000D1F708958F929F92AF92BF92CF92DF9273
:10027000EF92FF926B017C010E940D014B015C012A
:10028000C114D104E104F104E9F00E9462020E9469
:100290000D01681979098A099B09683E7340810537
:1002A000910570F321E0C21AD108E108F10888EE47
:1002B000880E83E0981EA11CB11CC114D104E10476
:1002C000F10429F7FF90EF90DF90CF90BF90AF90AF
:1002D0009F908F900895789484B5826084BD84B592
:1002E000816084BD85B5826085BD85B5816085BD31
:1002F000EEE6F0E0808181608083E1E8F0E010824A
:10030000808182608083808181608083E0E8F0E08A
:10031000808181608083E1EBF0E080818460808374
:10032000E0EBF0E0808181608083EAE7F0E08081AB
:10033000846080838081826080838081816080830B
:100340008081806880831092C1000895833081F09D
:1003500028F4813099F08230A9F008958730A9F00F
:100360008830C9F08430B1F4809180008F7D03C063
:10037000809180008F7780938000089584B58F7777
:1003800084BD089584B58F7DFBCF8091B0008F77B9
:100390008093B00008958091B0008F7DF9CFCF9306
:1003A000DF9390E0FC01E458FF4F249180579F4F6A
:1003B000FC0184918823C9F090E0880F991FFC010B
:1003C000E854FF4FA591B491FC01E255FF4FC59150
:1003D000D49161110DC09FB7F8948C912095822320
:1003E0008C938881282328839FBFDF91CF91089524
:1003F000623051F49FB7F8943C91822F809583230B
:100400008C93E8812E2BEFCF8FB7F894EC912E2BA5
:100410002C938FBFEACF1F93CF93DF93162F282FF4
:1004200030E0F901E859FF4F8491F901E458FF4F9A
:10043000D491F901E057FF4FC491CC23A1F0811171
:100440000E94A601EC2FF0E0EE0FFF1FE255FF4FD8
:10045000A591B4918FB7F894EC91111108C0D09583
:10046000DE23DC938FBFDF91CF911F910895DE2BA8
:10047000F8CFCF93DF93282F30E0F901E859FF4FF1
:100480008491F901E458FF4FD491F901E057FF4FEF
:10049000C491CC23A1F081110E94A601EC2FF0E0C1
:1004A000EE0FFF1FEC55FF4FA591B491EC91ED239A
:1004B00081E090E009F480E0DF91CF91089580E041
:1004C00090E0FACF089508950E946B010E946302A4
:1004D0000E948000C0E0D0E00E9490002097E1F3ED
:1004E0000E940000F9CFF8940C947602F894FFCFA4
:0204F000010009
:00000001FF
